{
  "abi": [
    {
      "anonymous": false,
      "inputs": [
        {
          "indexed": true,
          "internalType": "address",
          "name": "from",
          "type": "address"
        },
        {
          "indexed": true,
          "internalType": "uint256",
          "name": "txIndex",
          "type": "uint256"
        }
      ],
      "name": "ApprovalRevokedBy",
      "type": "event"
    },
    {
      "anonymous": false,
      "inputs": [
        {
          "indexed": true,
          "internalType": "address",
          "name": "sender",
          "type": "address"
        },
        {
          "indexed": true,
          "internalType": "address",
          "name": "token",
          "type": "address"
        },
        {
          "indexed": true,
          "internalType": "uint256",
          "name": "amount",
          "type": "uint256"
        },
        {
          "indexed": false,
          "internalType": "uint256",
          "name": "ContractBalance",
          "type": "uint256"
        }
      ],
      "name": "ERC20Deposited",
      "type": "event"
    },
    {
      "anonymous": false,
      "inputs": [
        {
          "indexed": true,
          "internalType": "address",
          "name": "sender",
          "type": "address"
        },
        {
          "indexed": true,
          "internalType": "uint256",
          "name": "amount",
          "type": "uint256"
        },
        {
          "indexed": false,
          "internalType": "uint256",
          "name": "ContractBalance",
          "type": "uint256"
        }
      ],
      "name": "EthDeposited",
      "type": "event"
    },
    {
      "anonymous": false,
      "inputs": [
        {
          "indexed": true,
          "internalType": "address",
          "name": "sender",
          "type": "address"
        },
        {
          "indexed": true,
          "internalType": "address",
          "name": "nftContract",
          "type": "address"
        },
        {
          "indexed": true,
          "internalType": "uint256",
          "name": "tokenId",
          "type": "uint256"
        },
        {
          "indexed": false,
          "internalType": "uint256",
          "name": "ContractBalance",
          "type": "uint256"
        }
      ],
      "name": "NFTDeposited",
      "type": "event"
    },
    {
      "anonymous": false,
      "inputs": [
        {
          "indexed": true,
          "internalType": "address",
          "name": "from",
          "type": "address"
        },
        {
          "indexed": true,
          "internalType": "uint256",
          "name": "txIndex",
          "type": "uint256"
        }
      ],
      "name": "TransactionApprovedBy",
      "type": "event"
    },
    {
      "anonymous": false,
      "inputs": [
        {
          "indexed": true,
          "internalType": "address",
          "name": "from",
          "type": "address"
        },
        {
          "indexed": true,
          "internalType": "uint256",
          "name": "txIndex",
          "type": "uint256"
        },
        {
          "indexed": false,
          "internalType": "bool",
          "name": "isERC20",
          "type": "bool"
        },
        {
          "indexed": false,
          "internalType": "bool",
          "name": "isNFT",
          "type": "bool"
        }
      ],
      "name": "TransactionExecuted",
      "type": "event"
    },
    {
      "anonymous": false,
      "inputs": [
        {
          "indexed": true,
          "internalType": "address",
          "name": "from",
          "type": "address"
        },
        {
          "indexed": false,
          "internalType": "address",
          "name": "contractAddress",
          "type": "address"
        },
        {
          "indexed": false,
          "internalType": "bool",
          "name": "isERC20",
          "type": "bool"
        },
        {
          "indexed": false,
          "internalType": "bool",
          "name": "isNFT",
          "type": "bool"
        },
        {
          "indexed": true,
          "internalType": "uint256",
          "name": "txIndex",
          "type": "uint256"
        },
        {
          "indexed": true,
          "internalType": "address",
          "name": "to",
          "type": "address"
        },
        {
          "indexed": false,
          "internalType": "uint256",
          "name": "valueOrTokenId",
          "type": "uint256"
        },
        {
          "indexed": false,
          "internalType": "bytes",
          "name": "data",
          "type": "bytes"
        }
      ],
      "name": "TransactionRequested",
      "type": "event"
    },
    {
      "inputs": [
        {
          "internalType": "uint128",
          "name": "_txIndex",
          "type": "uint128"
        }
      ],
      "name": "approveTransaction",
      "outputs": [
        {
          "internalType": "bool",
          "name": "approved",
          "type": "bool"
        }
      ],
      "stateMutability": "nonpayable",
      "type": "function"
    },
    {
      "inputs": [
        {
          "internalType": "address",
          "name": "_tokenAddress",
          "type": "address"
        },
        {
          "internalType": "uint256",
          "name": "_amount",
          "type": "uint256"
        }
      ],
      "name": "depositERC20",
      "outputs": [],
      "stateMutability": "nonpayable",
      "type": "function"
    },
    {
      "inputs": [],
      "name": "depositEth",
      "outputs": [],
      "stateMutability": "payable",
      "type": "function"
    },
    {
      "inputs": [
        {
          "internalType": "address",
          "name": "_tokenAddress",
          "type": "address"
        },
        {
          "internalType": "uint256",
          "name": "_tokenId",
          "type": "uint256"
        }
      ],
      "name": "depositNFT",
      "outputs": [],
      "stateMutability": "nonpayable",
      "type": "function"
    },
    {
      "inputs": [
        {
          "internalType": "uint128",
          "name": "_txIndex",
          "type": "uint128"
        }
      ],
      "name": "executeErc20Transaction",
      "outputs": [],
      "stateMutability": "nonpayable",
      "type": "function"
    },
    {
      "inputs": [
        {
          "internalType": "uint128",
          "name": "_txIndex",
          "type": "uint128"
        }
      ],
      "name": "executeEthTransaction",
      "outputs": [],
      "stateMutability": "nonpayable",
      "type": "function"
    },
    {
      "inputs": [
        {
          "internalType": "uint128",
          "name": "_txIndex",
          "type": "uint128"
        }
      ],
      "name": "executeNFTTransaction",
      "outputs": [],
      "stateMutability": "nonpayable",
      "type": "function"
    },
    {
      "inputs": [
        {
          "internalType": "uint256",
          "name": "",
          "type": "uint256"
        },
        {
          "internalType": "address",
          "name": "",
          "type": "address"
        }
      ],
      "name": "isApproved",
      "outputs": [
        {
          "internalType": "bool",
          "name": "",
          "type": "bool"
        }
      ],
      "stateMutability": "view",
      "type": "function"
    },
    {
      "inputs": [
        {
          "internalType": "address",
          "name": "",
          "type": "address"
        }
      ],
      "name": "isOwner",
      "outputs": [
        {
          "internalType": "bool",
          "name": "",
          "type": "bool"
        }
      ],
      "stateMutability": "view",
      "type": "function"
    },
    {
      "inputs": [],
      "name": "numApprovalsRequired",
      "outputs": [
        {
          "internalType": "uint128",
          "name": "",
          "type": "uint128"
        }
      ],
      "stateMutability": "view",
      "type": "function"
    },
    {
      "inputs": [
        {
          "internalType": "address",
          "name": "operator",
          "type": "address"
        },
        {
          "internalType": "address",
          "name": "from",
          "type": "address"
        },
        {
          "internalType": "uint256",
          "name": "tokenId",
          "type": "uint256"
        },
        {
          "internalType": "bytes",
          "name": "data",
          "type": "bytes"
        }
      ],
      "name": "onERC721Received",
      "outputs": [
        {
          "internalType": "bytes4",
          "name": "",
          "type": "bytes4"
        }
      ],
      "stateMutability": "pure",
      "type": "function"
    },
    {
      "inputs": [
        {
          "internalType": "uint256",
          "name": "",
          "type": "uint256"
        }
      ],
      "name": "owners",
      "outputs": [
        {
          "internalType": "address",
          "name": "",
          "type": "address"
        }
      ],
      "stateMutability": "view",
      "type": "function"
    },
    {
      "inputs": [
        {
          "internalType": "address",
          "name": "_to",
          "type": "address"
        },
        {
          "internalType": "address",
          "name": "_contractAddress",
          "type": "address"
        },
        {
          "internalType": "uint256",
          "name": "_value",
          "type": "uint256"
        }
      ],
      "name": "requestErc20Transfer",
      "outputs": [],
      "stateMutability": "nonpayable",
      "type": "function"
    },
    {
      "inputs": [
        {
          "internalType": "address",
          "name": "_to",
          "type": "address"
        },
        {
          "internalType": "uint256",
          "name": "_value",
          "type": "uint256"
        },
        {
          "internalType": "bytes",
          "name": "_data",
          "type": "bytes"
        }
      ],
      "name": "requestEthTransfer",
      "outputs": [],
      "stateMutability": "nonpayable",
      "type": "function"
    },
    {
      "inputs": [
        {
          "internalType": "address",
          "name": "_to",
          "type": "address"
        },
        {
          "internalType": "address",
          "name": "_contractAddress",
          "type": "address"
        },
        {
          "internalType": "uint256",
          "name": "_tokenId",
          "type": "uint256"
        }
      ],
      "name": "requestNFTTransfer",
      "outputs": [],
      "stateMutability": "nonpayable",
      "type": "function"
    },
    {
      "inputs": [
        {
          "internalType": "uint128",
          "name": "_txIndex",
          "type": "uint128"
        }
      ],
      "name": "revokeApproval",
      "outputs": [
        {
          "internalType": "bool",
          "name": "revoked",
          "type": "bool"
        }
      ],
      "stateMutability": "nonpayable",
      "type": "function"
    },
    {
      "inputs": [],
      "name": "transactionKey",
      "outputs": [
        {
          "internalType": "uint128",
          "name": "",
          "type": "uint128"
        }
      ],
      "stateMutability": "view",
      "type": "function"
    },
    {
      "inputs": [
        {
          "internalType": "uint128",
          "name": "",
          "type": "uint128"
        }
      ],
      "name": "transactions",
      "outputs": [
        {
          "internalType": "bool",
          "name": "isNFT",
          "type": "bool"
        },
        {
          "internalType": "address",
          "name": "to",
          "type": "address"
        },
        {
          "internalType": "address",
          "name": "tokenContract",
          "type": "address"
        },
        {
          "internalType": "bool",
          "name": "isExecuted",
          "type": "bool"
        },
        {
          "internalType": "uint88",
          "name": "numberOfApprovals",
          "type": "uint88"
        },
        {
          "internalType": "uint256",
          "name": "valueOrTokenId",
          "type": "uint256"
        },
        {
          "internalType": "bytes",
          "name": "data",
          "type": "bytes"
        }
      ],
      "stateMutability": "view",
      "type": "function"
    },
    {
      "stateMutability": "payable",
      "type": "receive"
    }
  ],
  "bytecode": {
    "object": "0x608060405234801561001057600080fd5b5060016000556122df806100256000396000f3fe60806040526004361061010d5760003560e01c8063788f303911610095578063aa5dd39411610064578063aa5dd39414610376578063b8d00d4a146103a9578063cdfec8c0146103c9578063e6ebc0b5146103e9578063fe9320621461040957600080fd5b8063788f3039146102d7578063923333ac146102f757806397feb926146103365780639b5b9b181461035657600080fd5b806342007430116100dc5780634200743014610234578063439370b11461025457806348740da21461025c57806356c316371461027c5780635d110194146102b757600080fd5b8063025e7c271461015057806312a66b091461018d578063150b7a02146101af5780632f54bf6e146101f457600080fd5b3661014b57604051478152349033907f3f7db3ccdc06492eb9fcca5fe34fcee7f7ddcca331e5053cb3534067b9a532329060200160405180910390a3005b600080fd5b34801561015c57600080fd5b5061017061016b366004611b98565b610429565b6040516001600160a01b0390911681526020015b60405180910390f35b34801561019957600080fd5b506101ad6101a8366004611bdf565b610453565b005b3480156101bb57600080fd5b506101db6101ca366004611cac565b630a85bd0160e11b95945050505050565b6040516001600160e01b03199091168152602001610184565b34801561020057600080fd5b5061022461020f366004611d4b565b60036020526000908152604090205460ff1681565b6040519015158152602001610184565b34801561024057600080fd5b5061022461024f366004611d6f565b6106fc565b6101ad6108cf565b34801561026857600080fd5b506101ad610277366004611d6f565b610937565b34801561028857600080fd5b50610224610297366004611d98565b600460209081526000928352604080842090915290825290205460ff1681565b3480156102c357600080fd5b506101ad6102d2366004611d6f565b610b83565b3480156102e357600080fd5b506101ad6102f2366004611dc8565b610dcc565b34801561030357600080fd5b5060025461031e90600160801b90046001600160801b031681565b6040516001600160801b039091168152602001610184565b34801561034257600080fd5b506101ad610351366004611e09565b6110e3565b34801561036257600080fd5b506101ad610371366004611e09565b61124a565b34801561038257600080fd5b50610396610391366004611d6f565b611392565b6040516101849796959493929190611e7b565b3480156103b557600080fd5b506101ad6103c4366004611dc8565b61147c565b3480156103d557600080fd5b506101ad6103e4366004611d6f565b6116f0565b3480156103f557600080fd5b50610224610404366004611d6f565b611985565b34801561041557600080fd5b5060025461031e906001600160801b031681565b6001818154811061043957600080fd5b6000918252602090912001546001600160a01b0316905081565b3360009081526003602052604090205460ff1661048b5760405162461bcd60e51b815260040161048290611eda565b60405180910390fd5b814710156104d35760405162461bcd60e51b815260206004820152601560248201527445746865722062616c616e636520746f6f206c6f7760581b6044820152606401610482565b60028054600160801b90046001600160801b03169060106104f383611f13565b91906101000a8154816001600160801b0302191690836001600160801b03160217905550506000600260109054906101000a90046001600160801b031690506040518060e00160405280600015158152602001856001600160a01b0316815260200160006001600160a01b0316815260200160001515815260200160006001600160581b031681526020018481526020018381525060056000836001600160801b03166001600160801b0316815260200190815260200160002060008201518160000160006101000a81548160ff02191690831515021790555060208201518160000160016101000a8154816001600160a01b0302191690836001600160a01b0316021790555060408201518160010160006101000a8154816001600160a01b0302191690836001600160a01b0316021790555060608201518160010160146101000a81548160ff02191690831515021790555060808201518160010160156101000a8154816001600160581b0302191690836001600160581b0316021790555060a0820151816002015560c08201518160030190816106939190611fc1565b50905050836001600160a01b0316816001600160801b0316336001600160a01b03167f6d4ae11db490a123bce232aaadcd7a25df6ee0431e37ffc040d966d6da9b94e0600080600089896040516106ee959493929190612081565b60405180910390a450505050565b3360009081526003602052604081205460ff1661072b5760405162461bcd60e51b815260040161048290611eda565b6002546001600160801b0380841691600160801b9004168111156107615760405162461bcd60e51b8152600401610482906120c3565b6001600160801b0383166000908152600560205260409020600101548390600160a01b900460ff16156107a65760405162461bcd60e51b8152600401610482906120ee565b6001600160801b038416600081815260046020908152604080832033845290915290205460ff16156108115760405162461bcd60e51b81526020600482015260146024820152731d1e08185b1c9958591e4818dbdb999a5c9b595960621b6044820152606401610482565b6001600160801b03851660009081526005602052604090206001808201805460159061084e908490600160a81b90046001600160581b031661211b565b82546001600160581b039182166101009390930a9283029190920219909116179055506001600160801b0386166000818152600460209081526040808320338085529252808320805460ff191660011790555190917f82cf5d4c835f7a8754c727f501815ac0da645e6ad94198693ab623940cd93d0891a350505050919050565b3360009081526003602052604090205460ff166108fe5760405162461bcd60e51b815260040161048290611eda565b604051478152349033907f3f7db3ccdc06492eb9fcca5fe34fcee7f7ddcca331e5053cb3534067b9a532329060200160405180910390a3565b3360009081526003602052604090205460ff166109665760405162461bcd60e51b815260040161048290611eda565b6002546001600160801b0380831691600160801b90041681111561099c5760405162461bcd60e51b8152600401610482906120c3565b6001600160801b0382166000908152600560205260409020600101548290600160a01b900460ff16156109e15760405162461bcd60e51b8152600401610482906120ee565b6001600160801b038381166000908152600560205260409020600181015460025491926001600160a01b0382169216600160a81b9091046001600160581b03161015610a3f5760405162461bcd60e51b815260040161048290612142565b815460ff1615156001148015610a5d57506001600160a01b03811615155b610aa95760405162461bcd60e51b815260206004820152601f60248201527f7472616e73616374696f6e206973206e6f7420616e204e465420546f6b656e006044820152606401610482565b60018201805460ff60a01b1916600160a01b17905581546002830154604051632142170760e11b81523060048201526001600160a01b03610100909304831660248201526044810191909152908216906342842e0e90606401600060405180830381600087803b158015610b1c57600080fd5b505af1158015610b30573d6000803e3d6000fd5b50506040805160008152600160208201526001600160801b03891693503392507fce7d67f7fafeb52a370bb589399503678185dad12b2a917a50046921ab68448891015b60405180910390a35050505050565b3360009081526003602052604090205460ff16610bb25760405162461bcd60e51b815260040161048290611eda565b6002546001600160801b0380831691600160801b900416811115610be85760405162461bcd60e51b8152600401610482906120c3565b6001600160801b0382166000908152600560205260409020600101548290600160a01b900460ff1615610c2d5760405162461bcd60e51b8152600401610482906120ee565b6001600160801b038381166000908152600560205260409020600181015460025491926001600160a01b0382169216600160a81b9091046001600160581b03161015610c8b5760405162461bcd60e51b815260040161048290612142565b815460ff16158015610ca557506001600160a01b03811615155b610cf15760405162461bcd60e51b815260206004820152601e60248201527f7472616e73616374696f6e206973206e6f7420455243323020746f6b656e00006044820152606401610482565b60018201805460ff60a01b1916600160a01b1790558154600283015460405163a9059cbb60e01b81526001600160a01b036101009093048316600482015260248101919091529082169063a9059cbb906044016020604051808303816000875af1158015610d63573d6000803e3d6000fd5b505050506040513d601f19601f82011682018060405250810190610d879190612184565b506040805160018152600060208201526001600160801b0387169133917fce7d67f7fafeb52a370bb589399503678185dad12b2a917a50046921ab6844889101610b74565b3360009081526003602052604090205460ff16610dfb5760405162461bcd60e51b815260040161048290611eda565b6040516331a9108f60e11b81526004810182905230906001600160a01b03841690636352211e90602401602060405180830381865afa158015610e42573d6000803e3d6000fd5b505050506040513d601f19601f82011682018060405250810190610e6691906121a6565b6001600160a01b031614610ebc5760405162461bcd60e51b815260206004820152601b60248201527f436f6e747261637420646f6573206e6f74206f776e20746f6b656e00000000006044820152606401610482565b60028054600160801b90046001600160801b0316906010610edc83611f13565b91906101000a8154816001600160801b0302191690836001600160801b03160217905550506000600260109054906101000a90046001600160801b031690506040518060e00160405280600115158152602001856001600160a01b03168152602001846001600160a01b0316815260200160001515815260200160006001600160581b031681526020018381526020016040518060200160405280600081525081525060056000836001600160801b03166001600160801b0316815260200190815260200160002060008201518160000160006101000a81548160ff02191690831515021790555060208201518160000160016101000a8154816001600160a01b0302191690836001600160a01b0316021790555060408201518160010160006101000a8154816001600160a01b0302191690836001600160a01b0316021790555060608201518160010160146101000a81548160ff02191690831515021790555060808201518160010160156101000a8154816001600160581b0302191690836001600160581b0316021790555060a0820151816002015560c082015181600301908161108a9190611fc1565b50905050836001600160a01b0316816001600160801b0316336001600160a01b03167f6d4ae11db490a123bce232aaadcd7a25df6ee0431e37ffc040d966d6da9b94e06000806001886040516106ee94939291906121c3565b3360009081526003602052604090205460ff166111125760405162461bcd60e51b815260040161048290611eda565b6040516323b872dd60e01b8152336004820152306024820152604481018290526001600160a01b038316906323b872dd906064016020604051808303816000875af1158015611165573d6000803e3d6000fd5b505050506040513d601f19601f820116820180604052508101906111899190612184565b506040516370a0823160e01b81523060048201526000906001600160a01b038416906370a0823190602401602060405180830381865afa1580156111d1573d6000803e3d6000fd5b505050506040513d601f19601f820116820180604052508101906111f591906121fa565b905081836001600160a01b0316336001600160a01b03167f74a67718db903adcd43217eab12c9077379241bc13029906419bd353f0aa12ed8460405161123d91815260200190565b60405180910390a4505050565b3360009081526003602052604090205460ff166112795760405162461bcd60e51b815260040161048290611eda565b604051632142170760e11b8152336004820152306024820152604481018290526001600160a01b038316906342842e0e90606401600060405180830381600087803b1580156112c757600080fd5b505af11580156112db573d6000803e3d6000fd5b50506040516370a0823160e01b8152306004820152600092506001600160a01b03851691506370a0823190602401602060405180830381865afa158015611326573d6000803e3d6000fd5b505050506040513d601f19601f8201168201806040525081019061134a91906121fa565b905081836001600160a01b0316336001600160a01b03167f724414d5e450a09b21fe7c26f56b1ceb1b2b59eaa91ca885cbf8dc618c4e03848460405161123d91815260200190565b600560205260009081526040902080546001820154600283015460038401805460ff808616966101009096046001600160a01b039081169690861695600160a01b810490921694600160a81b9092046001600160581b03169391929091906113f990611f39565b80601f016020809104026020016040519081016040528092919081815260200182805461142590611f39565b80156114725780601f1061144757610100808354040283529160200191611472565b820191906000526020600020905b81548152906001019060200180831161145557829003601f168201915b5050505050905087565b3360009081526003602052604090205460ff166114ab5760405162461bcd60e51b815260040161048290611eda565b6040516370a0823160e01b815230600482015281906001600160a01b038416906370a0823190602401602060405180830381865afa1580156114f1573d6000803e3d6000fd5b505050506040513d601f19601f8201168201806040525081019061151591906121fa565b101561155b5760405162461bcd60e51b8152602060048201526015602482015274546f6b656e2062616c616e636520746f6f206c6f7760581b6044820152606401610482565b60028054600160801b90046001600160801b031690601061157b83611f13565b82546001600160801b0391821661010093840a9081029083021990911617909255600280546040805160e08101825260008082526001600160a01b03808c1660208085019182528c8316858701908152606086018581526080870186815260a088018f815289518086018b5288815260c08a01908152600160801b909b04909d168088526005909452979095208651815494518616909b02610100600160a81b03199b15159b909b166001600160a81b0319948516179a909a178a555160018a018054955197516001600160581b0316600160a81b026001600160a81b03981515600160a01b029690941691909416179390931794909416939093179092559451928401929092555190935060038201906116969082611fc1565b50905050836001600160a01b0316816001600160801b0316336001600160a01b03167f6d4ae11db490a123bce232aaadcd7a25df6ee0431e37ffc040d966d6da9b94e0600060016000886040516106ee94939291906121c3565b3360009081526003602052604090205460ff1661171f5760405162461bcd60e51b815260040161048290611eda565b6002546001600160801b0380831691600160801b9004168111156117555760405162461bcd60e51b8152600401610482906120c3565b6001600160801b0382166000908152600560205260409020600101548290600160a01b900460ff161561179a5760405162461bcd60e51b8152600401610482906120ee565b6117a2611b3f565b6001600160801b0383811660009081526005602052604090206002546001820154919216600160a81b9091046001600160581b031610156117f55760405162461bcd60e51b815260040161048290612142565b805460ff16158015611812575060018101546001600160a01b0316155b61186e5760405162461bcd60e51b815260206004820152602760248201527f7472616e73616374696f6e206973206e6f7420616e204574686572207472616e60448201526639b0b1ba34b7b760c91b6064820152608401610482565b60018101805460ff60a01b1916600160a01b179055805460028201546040516000926001600160a01b036101009091041691906118af906003860190612213565b60006040518083038185875af1925050503d80600081146118ec576040519150601f19603f3d011682016040523d82523d6000602084013e6118f1565b606091505b505090508061192e5760405162461bcd60e51b81526020600482015260096024820152681d1e0819985a5b195960ba1b6044820152606401610482565b60408051600080825260208201526001600160801b0387169133917fce7d67f7fafeb52a370bb589399503678185dad12b2a917a50046921ab684488910160405180910390a350506119806001600055565b505050565b3360009081526003602052604081205460ff166119b45760405162461bcd60e51b815260040161048290611eda565b6002546001600160801b0380841691600160801b9004168111156119ea5760405162461bcd60e51b8152600401610482906120c3565b6001600160801b0383166000908152600560205260409020600101548390600160a01b900460ff1615611a2f5760405162461bcd60e51b8152600401610482906120ee565b6001600160801b0384166000908152600560209081526040808320600483528184203385529092529091205460ff16611a9d5760405162461bcd60e51b815260206004820152601060248201526f1d1e081b9bdd0818dbdb999a5c9b595960821b6044820152606401610482565b60018181018054601590611ac2908490600160a81b90046001600160581b0316612289565b82546001600160581b039182166101009390930a9283029190920219909116179055506001600160801b0385166000818152600460209081526040808320338085529252808320805460ff191690555190917faddb8b64f3ebc7d3cfbc1dd20257eaae607bd91ce969d820e175bd4836b6cadb91a3505050919050565b600260005403611b915760405162461bcd60e51b815260206004820152601f60248201527f5265656e7472616e637947756172643a207265656e7472616e742063616c6c006044820152606401610482565b6002600055565b600060208284031215611baa57600080fd5b5035919050565b6001600160a01b0381168114611bc657600080fd5b50565b634e487b7160e01b600052604160045260246000fd5b600080600060608486031215611bf457600080fd5b8335611bff81611bb1565b925060208401359150604084013567ffffffffffffffff80821115611c2357600080fd5b818601915086601f830112611c3757600080fd5b813581811115611c4957611c49611bc9565b604051601f8201601f19908116603f01168101908382118183101715611c7157611c71611bc9565b81604052828152896020848701011115611c8a57600080fd5b8260208601602083013760006020848301015280955050505050509250925092565b600080600080600060808688031215611cc457600080fd5b8535611ccf81611bb1565b94506020860135611cdf81611bb1565b935060408601359250606086013567ffffffffffffffff80821115611d0357600080fd5b818801915088601f830112611d1757600080fd5b813581811115611d2657600080fd5b896020828501011115611d3857600080fd5b9699959850939650602001949392505050565b600060208284031215611d5d57600080fd5b8135611d6881611bb1565b9392505050565b600060208284031215611d8157600080fd5b81356001600160801b0381168114611d6857600080fd5b60008060408385031215611dab57600080fd5b823591506020830135611dbd81611bb1565b809150509250929050565b600080600060608486031215611ddd57600080fd5b8335611de881611bb1565b92506020840135611df881611bb1565b929592945050506040919091013590565b60008060408385031215611e1c57600080fd5b8235611e2781611bb1565b946020939093013593505050565b6000815180845260005b81811015611e5b57602081850181015186830182015201611e3f565b506000602082860101526020601f19601f83011685010191505092915050565b87151581526001600160a01b0387811660208301528616604082015284151560608201526001600160581b038416608082015260a0810183905260e060c08201819052600090611ecd90830184611e35565b9998505050505050505050565b6020808252600990820152683737ba1037bbb732b960b91b604082015260600190565b634e487b7160e01b600052601160045260246000fd5b60006001600160801b03808316818103611f2f57611f2f611efd565b6001019392505050565b600181811c90821680611f4d57607f821691505b602082108103611f6d57634e487b7160e01b600052602260045260246000fd5b50919050565b601f82111561198057600081815260208120601f850160051c81016020861015611f9a5750805b601f850160051c820191505b81811015611fb957828155600101611fa6565b505050505050565b815167ffffffffffffffff811115611fdb57611fdb611bc9565b611fef81611fe98454611f39565b84611f73565b602080601f831160018114612024576000841561200c5750858301515b600019600386901b1c1916600185901b178555611fb9565b600085815260208120601f198616915b8281101561205357888601518255948401946001909101908401612034565b50858210156120715787850151600019600388901b60f8161c191681555b5050505050600190811b01905550565b60018060a01b03861681528415156020820152831515604082015282606082015260a0608082015260006120b860a0830184611e35565b979650505050505050565b6020808252601190820152701d1e08191bd95cc81b9bdd08195e1a5cdd607a1b604082015260600190565b6020808252601390820152721d1e08185b1c9958591e48195e1958dd5d1959606a1b604082015260600190565b6001600160581b0381811683821601908082111561213b5761213b611efd565b5092915050565b60208082526022908201527f4e6f7420656e6f75676820617070726f76616c7320746f2065786563757465206040820152610e8f60f31b606082015260800190565b60006020828403121561219657600080fd5b81518015158114611d6857600080fd5b6000602082840312156121b857600080fd5b8151611d6881611bb1565b6001600160a01b03949094168452911515602084015215156040830152606082015260a06080820181905260009082015260c00190565b60006020828403121561220c57600080fd5b5051919050565b600080835461222181611f39565b60018281168015612239576001811461224e5761227d565b60ff198416875282151583028701945061227d565b8760005260208060002060005b858110156122745781548a82015290840190820161225b565b50505082870194505b50929695505050505050565b6001600160581b0382811682821603908082111561213b5761213b611efd56fea264697066735822122098db19429d4da69c262f36a5f8a34f29403b08d8a65270274575398362c3f16d64736f6c63430008110033",
    "linkReferences": {}
  },
  "methodIdentifiers": {
    "approveTransaction(uint128)": "42007430",
    "depositERC20(address,uint256)": "97feb926",
    "depositEth()": "439370b1",
    "depositNFT(address,uint256)": "9b5b9b18",
    "executeErc20Transaction(uint128)": "5d110194",
    "executeEthTransaction(uint128)": "cdfec8c0",
    "executeNFTTransaction(uint128)": "48740da2",
    "isApproved(uint256,address)": "56c31637",
    "isOwner(address)": "2f54bf6e",
    "numApprovalsRequired()": "fe932062",
    "onERC721Received(address,address,uint256,bytes)": "150b7a02",
    "owners(uint256)": "025e7c27",
    "requestErc20Transfer(address,address,uint256)": "b8d00d4a",
    "requestEthTransfer(address,uint256,bytes)": "12a66b09",
    "requestNFTTransfer(address,address,uint256)": "788f3039",
    "revokeApproval(uint128)": "e6ebc0b5",
    "transactionKey()": "923333ac",
    "transactions(uint128)": "aa5dd394"
  },
  "id": 31
}