{
  "abi": [
    {
      "inputs": [
        {
          "internalType": "address[]",
          "name": "_listOfOwners",
          "type": "address[]"
        },
        {
          "internalType": "uint128",
          "name": "_numApprovalsRequired",
          "type": "uint128"
        }
      ],
      "stateMutability": "nonpayable",
      "type": "constructor"
    },
    {
      "anonymous": false,
      "inputs": [
        {
          "indexed": true,
          "internalType": "address",
          "name": "from",
          "type": "address"
        },
        {
          "indexed": true,
          "internalType": "uint256",
          "name": "txIndex",
          "type": "uint256"
        }
      ],
      "name": "ApprovalRevokedBy",
      "type": "event"
    },
    {
      "anonymous": false,
      "inputs": [
        {
          "indexed": true,
          "internalType": "address",
          "name": "sender",
          "type": "address"
        },
        {
          "indexed": true,
          "internalType": "address",
          "name": "token",
          "type": "address"
        },
        {
          "indexed": true,
          "internalType": "uint256",
          "name": "amount",
          "type": "uint256"
        },
        {
          "indexed": false,
          "internalType": "uint256",
          "name": "ContractBalance",
          "type": "uint256"
        }
      ],
      "name": "ERC20Deposited",
      "type": "event"
    },
    {
      "anonymous": false,
      "inputs": [
        {
          "indexed": true,
          "internalType": "address",
          "name": "sender",
          "type": "address"
        },
        {
          "indexed": true,
          "internalType": "uint256",
          "name": "amount",
          "type": "uint256"
        },
        {
          "indexed": false,
          "internalType": "uint256",
          "name": "ContractBalance",
          "type": "uint256"
        }
      ],
      "name": "EthDeposited",
      "type": "event"
    },
    {
      "anonymous": false,
      "inputs": [
        {
          "indexed": true,
          "internalType": "address",
          "name": "sender",
          "type": "address"
        },
        {
          "indexed": true,
          "internalType": "address",
          "name": "nftContract",
          "type": "address"
        },
        {
          "indexed": true,
          "internalType": "uint256",
          "name": "tokenId",
          "type": "uint256"
        },
        {
          "indexed": false,
          "internalType": "uint256",
          "name": "ContractBalance",
          "type": "uint256"
        }
      ],
      "name": "NFTDeposited",
      "type": "event"
    },
    {
      "anonymous": false,
      "inputs": [
        {
          "indexed": true,
          "internalType": "address",
          "name": "from",
          "type": "address"
        },
        {
          "indexed": true,
          "internalType": "uint256",
          "name": "txIndex",
          "type": "uint256"
        }
      ],
      "name": "TransactionApprovedBy",
      "type": "event"
    },
    {
      "anonymous": false,
      "inputs": [
        {
          "indexed": true,
          "internalType": "address",
          "name": "from",
          "type": "address"
        },
        {
          "indexed": true,
          "internalType": "uint256",
          "name": "txIndex",
          "type": "uint256"
        },
        {
          "indexed": false,
          "internalType": "bool",
          "name": "isERC20",
          "type": "bool"
        },
        {
          "indexed": false,
          "internalType": "bool",
          "name": "isNFT",
          "type": "bool"
        }
      ],
      "name": "TransactionExecuted",
      "type": "event"
    },
    {
      "anonymous": false,
      "inputs": [
        {
          "indexed": true,
          "internalType": "address",
          "name": "from",
          "type": "address"
        },
        {
          "indexed": false,
          "internalType": "address",
          "name": "contractAddress",
          "type": "address"
        },
        {
          "indexed": false,
          "internalType": "bool",
          "name": "isERC20",
          "type": "bool"
        },
        {
          "indexed": false,
          "internalType": "bool",
          "name": "isNFT",
          "type": "bool"
        },
        {
          "indexed": true,
          "internalType": "uint256",
          "name": "txIndex",
          "type": "uint256"
        },
        {
          "indexed": true,
          "internalType": "address",
          "name": "to",
          "type": "address"
        },
        {
          "indexed": false,
          "internalType": "uint256",
          "name": "valueOrTokenId",
          "type": "uint256"
        },
        {
          "indexed": false,
          "internalType": "bytes",
          "name": "data",
          "type": "bytes"
        }
      ],
      "name": "TransactionRequested",
      "type": "event"
    },
    {
      "inputs": [
        {
          "internalType": "uint128",
          "name": "_txIndex",
          "type": "uint128"
        }
      ],
      "name": "approveTransaction",
      "outputs": [
        {
          "internalType": "bool",
          "name": "approved",
          "type": "bool"
        }
      ],
      "stateMutability": "nonpayable",
      "type": "function"
    },
    {
      "inputs": [
        {
          "internalType": "address",
          "name": "_tokenAddress",
          "type": "address"
        },
        {
          "internalType": "uint256",
          "name": "_amount",
          "type": "uint256"
        }
      ],
      "name": "depositERC20",
      "outputs": [],
      "stateMutability": "nonpayable",
      "type": "function"
    },
    {
      "inputs": [],
      "name": "depositEth",
      "outputs": [],
      "stateMutability": "payable",
      "type": "function"
    },
    {
      "inputs": [
        {
          "internalType": "address",
          "name": "_tokenAddress",
          "type": "address"
        },
        {
          "internalType": "uint256",
          "name": "_tokenId",
          "type": "uint256"
        }
      ],
      "name": "depositNFT",
      "outputs": [],
      "stateMutability": "nonpayable",
      "type": "function"
    },
    {
      "inputs": [
        {
          "internalType": "uint128",
          "name": "_txIndex",
          "type": "uint128"
        }
      ],
      "name": "executeErc20Transaction",
      "outputs": [],
      "stateMutability": "nonpayable",
      "type": "function"
    },
    {
      "inputs": [
        {
          "internalType": "uint128",
          "name": "_txIndex",
          "type": "uint128"
        }
      ],
      "name": "executeEthTransaction",
      "outputs": [],
      "stateMutability": "nonpayable",
      "type": "function"
    },
    {
      "inputs": [
        {
          "internalType": "uint128",
          "name": "_txIndex",
          "type": "uint128"
        }
      ],
      "name": "executeNFTTransaction",
      "outputs": [],
      "stateMutability": "nonpayable",
      "type": "function"
    },
    {
      "inputs": [
        {
          "internalType": "address",
          "name": "_tokenAddress",
          "type": "address"
        }
      ],
      "name": "getErc20Balance",
      "outputs": [
        {
          "internalType": "uint256",
          "name": "",
          "type": "uint256"
        }
      ],
      "stateMutability": "view",
      "type": "function"
    },
    {
      "inputs": [],
      "name": "getEtherBalance",
      "outputs": [
        {
          "internalType": "uint256",
          "name": "",
          "type": "uint256"
        }
      ],
      "stateMutability": "view",
      "type": "function"
    },
    {
      "inputs": [
        {
          "internalType": "address",
          "name": "_tokenAddress",
          "type": "address"
        }
      ],
      "name": "getNFTBalance",
      "outputs": [
        {
          "internalType": "uint256",
          "name": "",
          "type": "uint256"
        }
      ],
      "stateMutability": "view",
      "type": "function"
    },
    {
      "inputs": [
        {
          "internalType": "uint128",
          "name": "_index",
          "type": "uint128"
        }
      ],
      "name": "getNumberofApprovals",
      "outputs": [
        {
          "internalType": "uint88",
          "name": "",
          "type": "uint88"
        }
      ],
      "stateMutability": "view",
      "type": "function"
    },
    {
      "inputs": [],
      "name": "getOwners",
      "outputs": [
        {
          "internalType": "address[]",
          "name": "",
          "type": "address[]"
        }
      ],
      "stateMutability": "view",
      "type": "function"
    },
    {
      "inputs": [
        {
          "internalType": "uint128",
          "name": "_txIndex",
          "type": "uint128"
        }
      ],
      "name": "getTransaction",
      "outputs": [
        {
          "internalType": "bool",
          "name": "isNFT",
          "type": "bool"
        },
        {
          "internalType": "address",
          "name": "to",
          "type": "address"
        },
        {
          "internalType": "address",
          "name": "tokenContract",
          "type": "address"
        },
        {
          "internalType": "uint256",
          "name": "valueOrTokenId",
          "type": "uint256"
        },
        {
          "internalType": "bytes",
          "name": "data",
          "type": "bytes"
        },
        {
          "internalType": "bool",
          "name": "isExecuted",
          "type": "bool"
        },
        {
          "internalType": "uint88",
          "name": "numberOfApprovals",
          "type": "uint88"
        }
      ],
      "stateMutability": "view",
      "type": "function"
    },
    {
      "inputs": [],
      "name": "getTransactionCount",
      "outputs": [
        {
          "internalType": "uint256",
          "name": "",
          "type": "uint256"
        }
      ],
      "stateMutability": "view",
      "type": "function"
    },
    {
      "inputs": [
        {
          "internalType": "uint256",
          "name": "",
          "type": "uint256"
        },
        {
          "internalType": "address",
          "name": "",
          "type": "address"
        }
      ],
      "name": "isApproved",
      "outputs": [
        {
          "internalType": "bool",
          "name": "",
          "type": "bool"
        }
      ],
      "stateMutability": "view",
      "type": "function"
    },
    {
      "inputs": [
        {
          "internalType": "address",
          "name": "",
          "type": "address"
        }
      ],
      "name": "isOwner",
      "outputs": [
        {
          "internalType": "bool",
          "name": "",
          "type": "bool"
        }
      ],
      "stateMutability": "view",
      "type": "function"
    },
    {
      "inputs": [],
      "name": "numApprovalsRequired",
      "outputs": [
        {
          "internalType": "uint128",
          "name": "",
          "type": "uint128"
        }
      ],
      "stateMutability": "view",
      "type": "function"
    },
    {
      "inputs": [
        {
          "internalType": "address",
          "name": "operator",
          "type": "address"
        },
        {
          "internalType": "address",
          "name": "from",
          "type": "address"
        },
        {
          "internalType": "uint256",
          "name": "tokenId",
          "type": "uint256"
        },
        {
          "internalType": "bytes",
          "name": "data",
          "type": "bytes"
        }
      ],
      "name": "onERC721Received",
      "outputs": [
        {
          "internalType": "bytes4",
          "name": "",
          "type": "bytes4"
        }
      ],
      "stateMutability": "pure",
      "type": "function"
    },
    {
      "inputs": [
        {
          "internalType": "uint256",
          "name": "",
          "type": "uint256"
        }
      ],
      "name": "owners",
      "outputs": [
        {
          "internalType": "address",
          "name": "",
          "type": "address"
        }
      ],
      "stateMutability": "view",
      "type": "function"
    },
    {
      "inputs": [
        {
          "internalType": "address",
          "name": "_to",
          "type": "address"
        },
        {
          "internalType": "address",
          "name": "_contractAddress",
          "type": "address"
        },
        {
          "internalType": "uint256",
          "name": "_value",
          "type": "uint256"
        }
      ],
      "name": "requestErc20Transfer",
      "outputs": [],
      "stateMutability": "nonpayable",
      "type": "function"
    },
    {
      "inputs": [
        {
          "internalType": "address",
          "name": "_to",
          "type": "address"
        },
        {
          "internalType": "uint256",
          "name": "_value",
          "type": "uint256"
        },
        {
          "internalType": "bytes",
          "name": "_data",
          "type": "bytes"
        }
      ],
      "name": "requestEthTransfer",
      "outputs": [],
      "stateMutability": "nonpayable",
      "type": "function"
    },
    {
      "inputs": [
        {
          "internalType": "address",
          "name": "_to",
          "type": "address"
        },
        {
          "internalType": "address",
          "name": "_contractAddress",
          "type": "address"
        },
        {
          "internalType": "uint256",
          "name": "_tokenId",
          "type": "uint256"
        }
      ],
      "name": "requestNFTTransfer",
      "outputs": [],
      "stateMutability": "nonpayable",
      "type": "function"
    },
    {
      "inputs": [
        {
          "internalType": "uint128",
          "name": "_txIndex",
          "type": "uint128"
        }
      ],
      "name": "revokeApproval",
      "outputs": [
        {
          "internalType": "bool",
          "name": "revoked",
          "type": "bool"
        }
      ],
      "stateMutability": "nonpayable",
      "type": "function"
    },
    {
      "inputs": [],
      "name": "transactionKey",
      "outputs": [
        {
          "internalType": "uint128",
          "name": "",
          "type": "uint128"
        }
      ],
      "stateMutability": "view",
      "type": "function"
    },
    {
      "inputs": [
        {
          "internalType": "uint128",
          "name": "",
          "type": "uint128"
        }
      ],
      "name": "transactions",
      "outputs": [
        {
          "internalType": "bool",
          "name": "isNFT",
          "type": "bool"
        },
        {
          "internalType": "address",
          "name": "to",
          "type": "address"
        },
        {
          "internalType": "address",
          "name": "tokenContract",
          "type": "address"
        },
        {
          "internalType": "bool",
          "name": "isExecuted",
          "type": "bool"
        },
        {
          "internalType": "uint88",
          "name": "numberOfApprovals",
          "type": "uint88"
        },
        {
          "internalType": "uint256",
          "name": "valueOrTokenId",
          "type": "uint256"
        },
        {
          "internalType": "bytes",
          "name": "data",
          "type": "bytes"
        }
      ],
      "stateMutability": "view",
      "type": "function"
    },
    {
      "stateMutability": "payable",
      "type": "receive"
    }
  ],
  "bytecode": {
    "object": "0x60806040523480156200001157600080fd5b5060405162002af038038062002af08339810160408190526200003491620002d3565b600160005581516200007f5760405162461bcd60e51b815260206004820152600f60248201526e1bdddb995c9cc81c995c5d5a5c9959608a1b60448201526064015b60405180910390fd5b6000816001600160801b0316118015620000a357508151816001600160801b031611155b6200010a5760405162461bcd60e51b815260206004820152603060248201527f6e756d626572206f6620726571756972656420636f6e6669726d6174696f6e7360448201526f081a5cc81bdd5d081bd988189bdd5b9d60821b606482015260840162000076565b60005b8251811015620002605760008382815181106200012e576200012e620003b9565b6020026020010151905060006001600160a01b0316816001600160a01b0316036200018c5760405162461bcd60e51b815260206004820152600d60248201526c34b73b30b634b21037bbb732b960991b604482015260640162000076565b6001600160a01b03811660009081526003602052604090205460ff1615620001ea5760405162461bcd60e51b815260206004820152601060248201526f6f776e6572206e6f7420756e6971756560801b604482015260640162000076565b6001600160a01b03166000818152600360205260408120805460ff191660019081179091558054808201825591527fb10e2d527612073b26eecdfd717e6a320cf44b4afac2b0732d9fcbe2b7fa0cf60180546001600160a01b0319169091179055806200025781620003cf565b9150506200010d565b50600280546001600160801b0319166001600160801b039290921691909117905550620003f7565b634e487b7160e01b600052604160045260246000fd5b80516001600160a01b0381168114620002b657600080fd5b919050565b80516001600160801b0381168114620002b657600080fd5b60008060408385031215620002e757600080fd5b82516001600160401b0380821115620002ff57600080fd5b818501915085601f8301126200031457600080fd5b81516020828211156200032b576200032b62000288565b8160051b604051601f19603f8301168101818110868211171562000353576200035362000288565b6040529283528183019350848101820192898411156200037257600080fd5b948201945b838610156200039b576200038b866200029e565b8552948201949382019362000377565b9650620003ac9050878201620002bb565b9450505050509250929050565b634e487b7160e01b600052603260045260246000fd5b600060018201620003f057634e487b7160e01b600052601160045260246000fd5b5060010190565b6126e980620004076000396000f3fe60806040526004361061016a5760003560e01c80638329cb61116100d1578063b8d00d4a1161008a578063cdfec8c011610064578063cdfec8c01461052b578063e6ebc0b51461054b578063ea46193e1461056b578063fe9320621461057e57600080fd5b8063b8d00d4a146104eb578063bf8ebd851461050b578063cc42010b1461050b57600080fd5b80638329cb61146103e4578063923333ac1461041757806397feb926146104565780639b5b9b1814610476578063a0e67e2b14610496578063aa5dd394146104b857600080fd5b806342007430116101235780634200743014610321578063439370b11461034157806348740da21461034957806356c31637146103695780635d110194146103a4578063788f3039146103c457600080fd5b8063025e7c27146101ad57806308880704146101ea57806312a66b091461024b578063150b7a021461026d5780632e7700f0146102b25780632f54bf6e146102e157600080fd5b366101a857604051478152349033907f3f7db3ccdc06492eb9fcca5fe34fcee7f7ddcca331e5053cb3534067b9a532329060200160405180910390a3005b600080fd5b3480156101b957600080fd5b506101cd6101c8366004611ef6565b61059e565b6040516001600160a01b0390911681526020015b60405180910390f35b3480156101f657600080fd5b50610233610205366004611f0f565b6001600160801b0316600090815260056020526040902060010154600160a81b90046001600160581b031690565b6040516001600160581b0390911681526020016101e1565b34801561025757600080fd5b5061026b610266366004611f6d565b6105c8565b005b34801561027957600080fd5b5061029961028836600461203a565b630a85bd0160e11b95945050505050565b6040516001600160e01b031990911681526020016101e1565b3480156102be57600080fd5b50600254600160801b90046001600160801b03165b6040519081526020016101e1565b3480156102ed57600080fd5b506103116102fc3660046120d9565b60036020526000908152604090205460ff1681565b60405190151581526020016101e1565b34801561032d57600080fd5b5061031161033c366004611f0f565b610871565b61026b610a44565b34801561035557600080fd5b5061026b610364366004611f0f565b610aac565b34801561037557600080fd5b506103116103843660046120f6565b600460209081526000928352604080842090915290825290205460ff1681565b3480156103b057600080fd5b5061026b6103bf366004611f0f565b610cf8565b3480156103d057600080fd5b5061026b6103df366004612126565b610f41565b3480156103f057600080fd5b506104046103ff366004611f0f565b611258565b6040516101e197969594939291906121ad565b34801561042357600080fd5b5060025461043e90600160801b90046001600160801b031681565b6040516001600160801b0390911681526020016101e1565b34801561046257600080fd5b5061026b61047136600461220c565b61136e565b34801561048257600080fd5b5061026b61049136600461220c565b6114d5565b3480156104a257600080fd5b506104ab61161d565b6040516101e19190612238565b3480156104c457600080fd5b506104d86104d3366004611f0f565b61167f565b6040516101e19796959493929190612285565b3480156104f757600080fd5b5061026b610506366004612126565b611769565b34801561051757600080fd5b506102d36105263660046120d9565b6119dd565b34801561053757600080fd5b5061026b610546366004611f0f565b611a4e565b34801561055757600080fd5b50610311610566366004611f0f565b611ce3565b34801561057757600080fd5b50476102d3565b34801561058a57600080fd5b5060025461043e906001600160801b031681565b600181815481106105ae57600080fd5b6000918252602090912001546001600160a01b0316905081565b3360009081526003602052604090205460ff166106005760405162461bcd60e51b81526004016105f7906122e4565b60405180910390fd5b814710156106485760405162461bcd60e51b815260206004820152601560248201527445746865722062616c616e636520746f6f206c6f7760581b60448201526064016105f7565b60028054600160801b90046001600160801b03169060106106688361231d565b91906101000a8154816001600160801b0302191690836001600160801b03160217905550506000600260109054906101000a90046001600160801b031690506040518060e00160405280600015158152602001856001600160a01b0316815260200160006001600160a01b0316815260200160001515815260200160006001600160581b031681526020018481526020018381525060056000836001600160801b03166001600160801b0316815260200190815260200160002060008201518160000160006101000a81548160ff02191690831515021790555060208201518160000160016101000a8154816001600160a01b0302191690836001600160a01b0316021790555060408201518160010160006101000a8154816001600160a01b0302191690836001600160a01b0316021790555060608201518160010160146101000a81548160ff02191690831515021790555060808201518160010160156101000a8154816001600160581b0302191690836001600160581b0316021790555060a0820151816002015560c082015181600301908161080891906123cb565b50905050836001600160a01b0316816001600160801b0316336001600160a01b03167f6d4ae11db490a123bce232aaadcd7a25df6ee0431e37ffc040d966d6da9b94e06000806000898960405161086395949392919061248b565b60405180910390a450505050565b3360009081526003602052604081205460ff166108a05760405162461bcd60e51b81526004016105f7906122e4565b6002546001600160801b0380841691600160801b9004168111156108d65760405162461bcd60e51b81526004016105f7906124cd565b6001600160801b0383166000908152600560205260409020600101548390600160a01b900460ff161561091b5760405162461bcd60e51b81526004016105f7906124f8565b6001600160801b038416600081815260046020908152604080832033845290915290205460ff16156109865760405162461bcd60e51b81526020600482015260146024820152731d1e08185b1c9958591e4818dbdb999a5c9b595960621b60448201526064016105f7565b6001600160801b0385166000908152600560205260409020600180820180546015906109c3908490600160a81b90046001600160581b0316612525565b82546001600160581b039182166101009390930a9283029190920219909116179055506001600160801b0386166000818152600460209081526040808320338085529252808320805460ff191660011790555190917f82cf5d4c835f7a8754c727f501815ac0da645e6ad94198693ab623940cd93d0891a350505050919050565b3360009081526003602052604090205460ff16610a735760405162461bcd60e51b81526004016105f7906122e4565b604051478152349033907f3f7db3ccdc06492eb9fcca5fe34fcee7f7ddcca331e5053cb3534067b9a532329060200160405180910390a3565b3360009081526003602052604090205460ff16610adb5760405162461bcd60e51b81526004016105f7906122e4565b6002546001600160801b0380831691600160801b900416811115610b115760405162461bcd60e51b81526004016105f7906124cd565b6001600160801b0382166000908152600560205260409020600101548290600160a01b900460ff1615610b565760405162461bcd60e51b81526004016105f7906124f8565b6001600160801b038381166000908152600560205260409020600181015460025491926001600160a01b0382169216600160a81b9091046001600160581b03161015610bb45760405162461bcd60e51b81526004016105f79061254c565b815460ff1615156001148015610bd257506001600160a01b03811615155b610c1e5760405162461bcd60e51b815260206004820152601f60248201527f7472616e73616374696f6e206973206e6f7420616e204e465420546f6b656e0060448201526064016105f7565b60018201805460ff60a01b1916600160a01b17905581546002830154604051632142170760e11b81523060048201526001600160a01b03610100909304831660248201526044810191909152908216906342842e0e90606401600060405180830381600087803b158015610c9157600080fd5b505af1158015610ca5573d6000803e3d6000fd5b50506040805160008152600160208201526001600160801b03891693503392507fce7d67f7fafeb52a370bb589399503678185dad12b2a917a50046921ab68448891015b60405180910390a35050505050565b3360009081526003602052604090205460ff16610d275760405162461bcd60e51b81526004016105f7906122e4565b6002546001600160801b0380831691600160801b900416811115610d5d5760405162461bcd60e51b81526004016105f7906124cd565b6001600160801b0382166000908152600560205260409020600101548290600160a01b900460ff1615610da25760405162461bcd60e51b81526004016105f7906124f8565b6001600160801b038381166000908152600560205260409020600181015460025491926001600160a01b0382169216600160a81b9091046001600160581b03161015610e005760405162461bcd60e51b81526004016105f79061254c565b815460ff16158015610e1a57506001600160a01b03811615155b610e665760405162461bcd60e51b815260206004820152601e60248201527f7472616e73616374696f6e206973206e6f7420455243323020746f6b656e000060448201526064016105f7565b60018201805460ff60a01b1916600160a01b1790558154600283015460405163a9059cbb60e01b81526001600160a01b036101009093048316600482015260248101919091529082169063a9059cbb906044016020604051808303816000875af1158015610ed8573d6000803e3d6000fd5b505050506040513d601f19601f82011682018060405250810190610efc919061258e565b506040805160018152600060208201526001600160801b0387169133917fce7d67f7fafeb52a370bb589399503678185dad12b2a917a50046921ab6844889101610ce9565b3360009081526003602052604090205460ff16610f705760405162461bcd60e51b81526004016105f7906122e4565b6040516331a9108f60e11b81526004810182905230906001600160a01b03841690636352211e90602401602060405180830381865afa158015610fb7573d6000803e3d6000fd5b505050506040513d601f19601f82011682018060405250810190610fdb91906125b0565b6001600160a01b0316146110315760405162461bcd60e51b815260206004820152601b60248201527f436f6e747261637420646f6573206e6f74206f776e20746f6b656e000000000060448201526064016105f7565b60028054600160801b90046001600160801b03169060106110518361231d565b91906101000a8154816001600160801b0302191690836001600160801b03160217905550506000600260109054906101000a90046001600160801b031690506040518060e00160405280600115158152602001856001600160a01b03168152602001846001600160a01b0316815260200160001515815260200160006001600160581b031681526020018381526020016040518060200160405280600081525081525060056000836001600160801b03166001600160801b0316815260200190815260200160002060008201518160000160006101000a81548160ff02191690831515021790555060208201518160000160016101000a8154816001600160a01b0302191690836001600160a01b0316021790555060408201518160010160006101000a8154816001600160a01b0302191690836001600160a01b0316021790555060608201518160010160146101000a81548160ff02191690831515021790555060808201518160010160156101000a8154816001600160581b0302191690836001600160581b0316021790555060a0820151816002015560c08201518160030190816111ff91906123cb565b50905050836001600160a01b0316816001600160801b0316336001600160a01b03167f6d4ae11db490a123bce232aaadcd7a25df6ee0431e37ffc040d966d6da9b94e060008060018860405161086394939291906125cd565b6001600160801b03811660009081526005602052604081208054600182015460028301546003840180548695869586956060958795869560ff8086169561010090046001600160a01b0390811695908116949392600160a01b820490921691600160a81b9091046001600160581b03169083906112d490612343565b80601f016020809104026020016040519081016040528092919081815260200182805461130090612343565b801561134d5780601f106113225761010080835404028352916020019161134d565b820191906000526020600020905b81548152906001019060200180831161133057829003601f168201915b50505050509250975097509750975097509750975050919395979092949650565b3360009081526003602052604090205460ff1661139d5760405162461bcd60e51b81526004016105f7906122e4565b6040516323b872dd60e01b8152336004820152306024820152604481018290526001600160a01b038316906323b872dd906064016020604051808303816000875af11580156113f0573d6000803e3d6000fd5b505050506040513d601f19601f82011682018060405250810190611414919061258e565b506040516370a0823160e01b81523060048201526000906001600160a01b038416906370a0823190602401602060405180830381865afa15801561145c573d6000803e3d6000fd5b505050506040513d601f19601f820116820180604052508101906114809190612604565b905081836001600160a01b0316336001600160a01b03167f74a67718db903adcd43217eab12c9077379241bc13029906419bd353f0aa12ed846040516114c891815260200190565b60405180910390a4505050565b3360009081526003602052604090205460ff166115045760405162461bcd60e51b81526004016105f7906122e4565b604051632142170760e11b8152336004820152306024820152604481018290526001600160a01b038316906342842e0e90606401600060405180830381600087803b15801561155257600080fd5b505af1158015611566573d6000803e3d6000fd5b50506040516370a0823160e01b8152306004820152600092506001600160a01b03851691506370a0823190602401602060405180830381865afa1580156115b1573d6000803e3d6000fd5b505050506040513d601f19601f820116820180604052508101906115d59190612604565b905081836001600160a01b0316336001600160a01b03167f724414d5e450a09b21fe7c26f56b1ceb1b2b59eaa91ca885cbf8dc618c4e0384846040516114c891815260200190565b6060600180548060200260200160405190810160405280929190818152602001828054801561167557602002820191906000526020600020905b81546001600160a01b03168152600190910190602001808311611657575b5050505050905090565b600560205260009081526040902080546001820154600283015460038401805460ff808616966101009096046001600160a01b039081169690861695600160a01b810490921694600160a81b9092046001600160581b03169391929091906116e690612343565b80601f016020809104026020016040519081016040528092919081815260200182805461171290612343565b801561175f5780601f106117345761010080835404028352916020019161175f565b820191906000526020600020905b81548152906001019060200180831161174257829003601f168201915b5050505050905087565b3360009081526003602052604090205460ff166117985760405162461bcd60e51b81526004016105f7906122e4565b6040516370a0823160e01b815230600482015281906001600160a01b038416906370a0823190602401602060405180830381865afa1580156117de573d6000803e3d6000fd5b505050506040513d601f19601f820116820180604052508101906118029190612604565b10156118485760405162461bcd60e51b8152602060048201526015602482015274546f6b656e2062616c616e636520746f6f206c6f7760581b60448201526064016105f7565b60028054600160801b90046001600160801b03169060106118688361231d565b82546001600160801b0391821661010093840a9081029083021990911617909255600280546040805160e08101825260008082526001600160a01b03808c1660208085019182528c8316858701908152606086018581526080870186815260a088018f815289518086018b5288815260c08a01908152600160801b909b04909d168088526005909452979095208651815494518616909b02610100600160a81b03199b15159b909b166001600160a81b0319948516179a909a178a555160018a018054955197516001600160581b0316600160a81b026001600160a81b03981515600160a01b0296909416919094161793909317949094169390931790925594519284019290925551909350600382019061198390826123cb565b50905050836001600160a01b0316816001600160801b0316336001600160a01b03167f6d4ae11db490a123bce232aaadcd7a25df6ee0431e37ffc040d966d6da9b94e06000600160008860405161086394939291906125cd565b6040516370a0823160e01b81523060048201526000906001600160a01b038316906370a0823190602401602060405180830381865afa158015611a24573d6000803e3d6000fd5b505050506040513d601f19601f82011682018060405250810190611a489190612604565b92915050565b3360009081526003602052604090205460ff16611a7d5760405162461bcd60e51b81526004016105f7906122e4565b6002546001600160801b0380831691600160801b900416811115611ab35760405162461bcd60e51b81526004016105f7906124cd565b6001600160801b0382166000908152600560205260409020600101548290600160a01b900460ff1615611af85760405162461bcd60e51b81526004016105f7906124f8565b611b00611e9d565b6001600160801b0383811660009081526005602052604090206002546001820154919216600160a81b9091046001600160581b03161015611b535760405162461bcd60e51b81526004016105f79061254c565b805460ff16158015611b70575060018101546001600160a01b0316155b611bcc5760405162461bcd60e51b815260206004820152602760248201527f7472616e73616374696f6e206973206e6f7420616e204574686572207472616e60448201526639b0b1ba34b7b760c91b60648201526084016105f7565b60018101805460ff60a01b1916600160a01b179055805460028201546040516000926001600160a01b03610100909104169190611c0d90600386019061261d565b60006040518083038185875af1925050503d8060008114611c4a576040519150601f19603f3d011682016040523d82523d6000602084013e611c4f565b606091505b5050905080611c8c5760405162461bcd60e51b81526020600482015260096024820152681d1e0819985a5b195960ba1b60448201526064016105f7565b60408051600080825260208201526001600160801b0387169133917fce7d67f7fafeb52a370bb589399503678185dad12b2a917a50046921ab684488910160405180910390a35050611cde6001600055565b505050565b3360009081526003602052604081205460ff16611d125760405162461bcd60e51b81526004016105f7906122e4565b6002546001600160801b0380841691600160801b900416811115611d485760405162461bcd60e51b81526004016105f7906124cd565b6001600160801b0383166000908152600560205260409020600101548390600160a01b900460ff1615611d8d5760405162461bcd60e51b81526004016105f7906124f8565b6001600160801b0384166000908152600560209081526040808320600483528184203385529092529091205460ff16611dfb5760405162461bcd60e51b815260206004820152601060248201526f1d1e081b9bdd0818dbdb999a5c9b595960821b60448201526064016105f7565b60018181018054601590611e20908490600160a81b90046001600160581b0316612693565b82546001600160581b039182166101009390930a9283029190920219909116179055506001600160801b0385166000818152600460209081526040808320338085529252808320805460ff191690555190917faddb8b64f3ebc7d3cfbc1dd20257eaae607bd91ce969d820e175bd4836b6cadb91a3505050919050565b600260005403611eef5760405162461bcd60e51b815260206004820152601f60248201527f5265656e7472616e637947756172643a207265656e7472616e742063616c6c0060448201526064016105f7565b6002600055565b600060208284031215611f0857600080fd5b5035919050565b600060208284031215611f2157600080fd5b81356001600160801b0381168114611f3857600080fd5b9392505050565b6001600160a01b0381168114611f5457600080fd5b50565b634e487b7160e01b600052604160045260246000fd5b600080600060608486031215611f8257600080fd5b8335611f8d81611f3f565b925060208401359150604084013567ffffffffffffffff80821115611fb157600080fd5b818601915086601f830112611fc557600080fd5b813581811115611fd757611fd7611f57565b604051601f8201601f19908116603f01168101908382118183101715611fff57611fff611f57565b8160405282815289602084870101111561201857600080fd5b8260208601602083013760006020848301015280955050505050509250925092565b60008060008060006080868803121561205257600080fd5b853561205d81611f3f565b9450602086013561206d81611f3f565b935060408601359250606086013567ffffffffffffffff8082111561209157600080fd5b818801915088601f8301126120a557600080fd5b8135818111156120b457600080fd5b8960208285010111156120c657600080fd5b9699959850939650602001949392505050565b6000602082840312156120eb57600080fd5b8135611f3881611f3f565b6000806040838503121561210957600080fd5b82359150602083013561211b81611f3f565b809150509250929050565b60008060006060848603121561213b57600080fd5b833561214681611f3f565b9250602084013561215681611f3f565b929592945050506040919091013590565b6000815180845260005b8181101561218d57602081850181015186830182015201612171565b506000602082860101526020601f19601f83011685010191505092915050565b87151581526001600160a01b038781166020830152861660408201526060810185905260e0608082018190526000906121e890830186612167565b93151560a0830152506001600160581b039190911660c09091015295945050505050565b6000806040838503121561221f57600080fd5b823561222a81611f3f565b946020939093013593505050565b6020808252825182820181905260009190848201906040850190845b818110156122795783516001600160a01b031683529284019291840191600101612254565b50909695505050505050565b87151581526001600160a01b0387811660208301528616604082015284151560608201526001600160581b038416608082015260a0810183905260e060c082018190526000906122d790830184612167565b9998505050505050505050565b6020808252600990820152683737ba1037bbb732b960b91b604082015260600190565b634e487b7160e01b600052601160045260246000fd5b60006001600160801b0380831681810361233957612339612307565b6001019392505050565b600181811c9082168061235757607f821691505b60208210810361237757634e487b7160e01b600052602260045260246000fd5b50919050565b601f821115611cde57600081815260208120601f850160051c810160208610156123a45750805b601f850160051c820191505b818110156123c3578281556001016123b0565b505050505050565b815167ffffffffffffffff8111156123e5576123e5611f57565b6123f9816123f38454612343565b8461237d565b602080601f83116001811461242e57600084156124165750858301515b600019600386901b1c1916600185901b1785556123c3565b600085815260208120601f198616915b8281101561245d5788860151825594840194600190910190840161243e565b508582101561247b5787850151600019600388901b60f8161c191681555b5050505050600190811b01905550565b60018060a01b03861681528415156020820152831515604082015282606082015260a0608082015260006124c260a0830184612167565b979650505050505050565b6020808252601190820152701d1e08191bd95cc81b9bdd08195e1a5cdd607a1b604082015260600190565b6020808252601390820152721d1e08185b1c9958591e48195e1958dd5d1959606a1b604082015260600190565b6001600160581b0381811683821601908082111561254557612545612307565b5092915050565b60208082526022908201527f4e6f7420656e6f75676820617070726f76616c7320746f2065786563757465206040820152610e8f60f31b606082015260800190565b6000602082840312156125a057600080fd5b81518015158114611f3857600080fd5b6000602082840312156125c257600080fd5b8151611f3881611f3f565b6001600160a01b03949094168452911515602084015215156040830152606082015260a06080820181905260009082015260c00190565b60006020828403121561261657600080fd5b5051919050565b600080835461262b81612343565b60018281168015612643576001811461265857612687565b60ff1984168752821515830287019450612687565b8760005260208060002060005b8581101561267e5781548a820152908401908201612665565b50505082870194505b50929695505050505050565b6001600160581b038281168282160390808211156125455761254561230756fea26469706673582212200b08f4e38362202811d27efdcad79b29f0917789f8b8b1ad0cc6403da772936964736f6c63430008110033",
    "linkReferences": {}
  },
  "methodIdentifiers": {
    "approveTransaction(uint128)": "42007430",
    "depositERC20(address,uint256)": "97feb926",
    "depositEth()": "439370b1",
    "depositNFT(address,uint256)": "9b5b9b18",
    "executeErc20Transaction(uint128)": "5d110194",
    "executeEthTransaction(uint128)": "cdfec8c0",
    "executeNFTTransaction(uint128)": "48740da2",
    "getErc20Balance(address)": "cc42010b",
    "getEtherBalance()": "ea46193e",
    "getNFTBalance(address)": "bf8ebd85",
    "getNumberofApprovals(uint128)": "08880704",
    "getOwners()": "a0e67e2b",
    "getTransaction(uint128)": "8329cb61",
    "getTransactionCount()": "2e7700f0",
    "isApproved(uint256,address)": "56c31637",
    "isOwner(address)": "2f54bf6e",
    "numApprovalsRequired()": "fe932062",
    "onERC721Received(address,address,uint256,bytes)": "150b7a02",
    "owners(uint256)": "025e7c27",
    "requestErc20Transfer(address,address,uint256)": "b8d00d4a",
    "requestEthTransfer(address,uint256,bytes)": "12a66b09",
    "requestNFTTransfer(address,address,uint256)": "788f3039",
    "revokeApproval(uint128)": "e6ebc0b5",
    "transactionKey()": "923333ac",
    "transactions(uint128)": "aa5dd394"
  },
  "id": 31
}